:100000000C942A000C94BB010C941B020C94470026
:100010000C9447000C9447000C9447000C94470044
:100020000C9447000C9447000C9447000C94470034
:100030000C9447000C9447000C9447000C94470024
:100040000C9447000C9447000C9447000C946E00ED
:100050000C94470011241FBECFE5D4E0DEBFCDBF16
:1000600011E0A0E6B0E0EAE5FDE002C005900D92E7
:10007000A833B107D9F711E0A8E3B1E001C01D92A0
:10008000A839B107E1F70E9429030C94AB060C9440
:1000900000008CE089B910BC88E18AB986E880BD8F
:1000A00008955D9BFECF8CB90895CF93DF93EC014B
:1000B0008881882331F021960E94510089918823FC
:1000C000D9F7DF91CF9108955F9BFECF8CB1089552
:1000D0003E9A379A80B7806680BF08951F920F922C
:1000E0000FB60F9211248F939F938091380188232C
:1000F00049F0369A3699FECF84B195B190933A0182
:10010000809339019F918F910F900FBE0F901F9098
:10011000189583B7886083BF83B7846083BF8CE002
:100120008CBF89B7826089BF0895EF92FF920F93C9
:100130001F93CF93DF9300E511E0C0E0D0E00E9471
:100140006400F80181938F0121968A3019F0CF3134
:10015000D105A9F7FE01E25BFE4F10827E018C2FD4
:100160009F2DDF91CF911F910F91FF90EF900895F8
:100170002F923F924F925F926F927F928F929F92B7
:10018000AF92BF92CF92DF92EF92FF920F931F93A5
:10019000CF93DF93C0E5D1E000E610E0BB24B39439
:1001A0000F2EF6E66F2EF0E07F2EF02D0F2EF4E7E7
:1001B000EF2EF0E0FF2EF02D0F2EF4E8CF2EF0E022
:1001C000DF2EF02D0F2EF6E98F2EF0E09F2EF02D72
:1001D0000F2EF6EA4F2EF0E05F2EF02DAA24689441
:1001E000A1F80F2EF8E72F2EF0E03F2EF02D0E9401
:1001F0009500CE01B8010E946603282F392F2115E2
:10020000310541F4B092380110923B01C3010E94C4
:100210005500EDCFCE01B7010E946603282F392F7C
:100220002115310531F410923301C1010E945500AE
:10023000DECFCE01B6010E946603282F392F21158B
:10024000310539F4B092330189E890E00E945500FD
:10025000CECFCE01B4010E946603282F392F21157D
:10026000310539F4A09233018AE990E00E945500EB
:10027000BECFCE01B2010E946603282F392F21156F
:10028000310539F4109238018AEA90E00E94550055
:10029000AECFCE0166EB70E046E050E00E946F0307
:1002A000282F392F2115310581F486E591E00E9430
:1002B0004803809334018B3018F08AE08093340136
:1002C0008DEB90E00E94550092CFCE0169EC70E07A
:1002D00047E050E00E946F03282F392F2115310588
:1002E00069F487E591E00E9448039093360180937A
:1002F000350181ED90E00E94550079CFCE0161EE8D
:1003000070E00E946603282F392F2115310571F501
:10031000ADB7BEB718970FB6F894BEBF0FBEADBF4E
:10032000EDB7FEB7319680E791E012969C938E93DD
:100330001197A8EEB0E0B383A28380913401848347
:1003400015828091350190913601978386830E94B2
:10035000A6038DB79EB708960FB6F8949EBF0FBE42
:100360008DBF80E791E00E94550041CF8DEF90E076
:100370000E9455003CCF1F920F920FB60F9211248E
:100380002F933F934F935F936F937F938F939F939D
:10039000AF93BF93CF93DF93EF93FF938091380197
:1003A0008823B1F190913B0180913401981780F539
:1003B000369A3699FECF24B135B1E0913B01F0E099
:1003C000EE0FFF1FE45CFE4F20833183C0E9D1E0D4
:1003D000822F932FBE014AE050E00E947D038FE000
:1003E00091E00E94550080913B01805D0E94510088
:1003F00084E191E00E945500CE010E94550089E100
:1004000091E00E94550080913B018F5F80933B01FA
:10041000FF91EF91DF91CF91BF91AF919F918F911C
:100420007F916F915F914F913F912F910F900FBEF0
:100430000F901F9018951F920F920FB60F921124D4
:10044000AF92BF92CF92DF92EF92FF920F931F93E2
:100450002F933F934F935F936F937F938F939F93CC
:10046000AF93BF93CF93DF93EF93FF9380913801C6
:10047000882309F4D3C0809133018230C9F580917B
:1004800034018823A9F10CE311E0C0E0D0E00F2E85
:10049000F0E9EF2EF1E0FF2EF02D0F2EFCE1CF2E34
:1004A000F1E0DF2EF02D0F2EF9E1AF2EF1E0BF2E9F
:1004B000F02DF801819191918F01B7014AE050E050
:1004C0000E947D03C6010E945500C7010E9455008D
:1004D000C5010E94550081EE94E00197F1F700C03C
:1004E000000021968091340190E0C817D9070CF3E1
:1004F00080913301882309F046C08091340188231C
:1005000009F441C0C0E0D0E00CE311E00F2EF0E9A7
:10051000EF2EF1E0FF2EF02D0F2EFCE1CF2EF1E0BB
:10052000DF2EF02D0F2EF9E1AF2EF1E0BF2EF02DD2
:10053000FE01EE0FFF1FE00FF11F808191812091DE
:1005400035013091360182179307ACF4B7014AE0C8
:1005500050E00E947D03C6010E945500C7010E9421
:100560005500C5010E945500E1EEF4E03197F1F726
:1005700000C0000001C0219621968091340190E0D6
:10058000C817D907ACF280913301813009F046C019
:1005900080913401882309F441C0C0E0D0E00CE32D
:1005A00011E00F2EF0E9EF2EF1E0FF2EF02D0F2ECF
:1005B000FCE1CF2EF1E0DF2EF02D0F2EF9E1AF2E72
:1005C000F1E0BF2EF02DFE01EE0FFF1FE00FF11F37
:1005D00080819181209135013091360182179307F6
:1005E000ACF0B7014AE050E00E947D03C6010E94D2
:1005F0005500C7010E945500C5010E94550081EEBB
:1006000094E00197F1F700C0000001C02196219607
:100610008091340190E0C817D907ACF2FF91EF91B7
:10062000DF91CF91BF91AF919F918F917F916F910A
:100630005F914F913F912F911F910F91FF90EF90FC
:10064000DF90CF90BF90AF900F900FBE0F901F9094
:1006500018951ABA82E081BB85B7807F85BF85B7C0
:10066000836085BF85B78C6085BF8BB7806C8BBF7F
:100670000E9449000E9468000E948900789483E2E9
:1006800091E00E9455000E94B80080E090E008953B
:10069000FC0188279927E89421912032E9F3293039
:1006A00010F02E30C8F32B3241F02D3239F468941B
:1006B00004C00E949E03820F911D219120532A3075
:1006C000C0F31EF4909581959F4F0895FB01DC01C6
:1006D0008D91019080190110D9F3990B0895FB01B8
:1006E000DC014150504030F08D910190801919F497
:1006F0000020B9F7881B990B0895FB019F01E8942E
:100700004230C4F04532B4F44A3029F497FB1EF469
:10071000909581959F4F642F77270E946006805D9A
:100720008A330CF0895D8193CB010097A1F716F411
:100730005DE251931082C9010C94C6057AE0979F3F
:10074000902D879F802D910D11240895AEE0B0E08B
:10075000ECEAF3E00C9482060D891E8986E08C8316
:100760001A8309838FEF9FE79E838D839E01275E07
:100770003F4FCE0101966F89788DA9010E94C90370
:10078000EF81F885E00FF11F10822E96E4E00C94C3
:100790009E06ACE0B0E0EFECF3E00C9474066C0164
:1007A0001B018A01FC0117821682838181FFD1C15E
:1007B0002E010894411C511CF6019381F10193FD17
:1007C000859193FF81911F01882309F4BEC1853271
:1007D00039F493FD859193FF81911F01853229F4AE
:1007E00090E0B6010E94D605E7CFEE24FF2420E07A
:1007F0002032B0F48B3269F08C3228F4803251F020
:10080000833271F40BC08D3239F0803349F42160AA
:100810002CC02260246029C0286027C0206125C028
:1008200027FD2CC0382F30533A3098F426FF08C0EB
:100830008E2D880FE82EEE0CEE0CE80EE30E15C0A0
:100840008F2D880FF82EFF0CFF0CF80EF30E206290
:100850000CC08E3221F426FD78C1206406C08C368F
:1008600011F4206802C0883649F4F10193FD8591A6
:1008700093FF81911F01882309F0BACF982F9554D7
:10088000933018F09052933028F40C5F1F4FFFE321
:10089000F9830DC0833631F0833771F0833509F069
:1008A00060C022C0F801808189830E5F1F4F420122
:1008B00071E0A72EB12C16C062E0662E712C600E7E
:1008C000711EF8018080918026FF03C06E2D70E0BC
:1008D00002C06FEF7FEFC4012C870E94BB055C0153
:1008E00083012C852F7717C052E0652E712C600E86
:1008F000711EF8018080918026FF03C06E2D70E08C
:1009000002C06FEF7FEFC4012C870E94B0055C012D
:100910002C852068830123FD20C008C080E290E080
:10092000B6012C870E94D605FA942C858F2D90E075
:10093000A816B90698F311C0F40127FD859127FF89
:1009400081914F0190E0B6012C870E94D6052C853D
:10095000F110FA940894A108B108A114B10461F748
:10096000F1C0843611F0893649F527FF08C0F80137
:1009700060817181828193810C5F1F4F09C0F801F2
:1009800060817181882777FD8095982F0E5F1F4FBA
:100990004FE6B42EB22297FF09C0909580957095CE
:1009A00061957F4F8F4F9F4FF0E8BF2AA2012AE049
:1009B00030E00E940206782E741845C0853731F465
:1009C0003FEEB32EB2222AE030E025C099EFB92ED7
:1009D000B2228F36C1F0803720F4883509F0B5C0D7
:1009E0000DC0803721F0883709F0AFC002C020E188
:1009F000B22AB4FE0BC084E0B82A08C0B4FE09C015
:100A0000E6E0BE2A06C028E030E005C020E130E084
:100A100002C020E132E0B7FE08C0F80160817181B8
:100A2000828193810C5F1F4F07C0F8016081718143
:100A300080E090E00E5F1F4FA2010E940206782E18
:100A40007418FFE7BF22B6FE0BC02EEFB2227E1451
:100A500038F4B4FE07C0B2FC05C08FEEB82202C065
:100A6000A72C01C0AE2C8B2D90E0B4FE0DC0FE0172
:100A7000E70DF11D2081203319F4E9EEBE2209C0F3
:100A8000A394B2FE06C004C086789070009709F067
:100A9000A3948B2C9924B3FC14C0B0FE0FC0AF14E8
:100AA00028F4E72CEF0CEA18AF2C08C0E72C06C09E
:100AB00080E290E0B6010E94D605A394AF14C0F383
:100AC00004C0AF1410F4FA1801C0FF2484FE0FC054
:100AD00080E390E0B6010E94D60582FE1FC081FE31
:100AE00003C088E590E010C088E790E00DC0C40125
:100AF00086789070009791F081FC02C080E201C07E
:100B00008BE2B7FC8DE290E0B6010E94D60506C0EC
:100B100080E390E0B6010E94D605EA947E14C0F30B
:100B20007A94F201E70DF11D808190E0B6010E94F8
:100B3000D6057720A9F706C080E290E0B6010E94B2
:100B4000D605FA94FF20C1F737CEF601268137810A
:100B500002C02FEF3FEFC9012C96E2E10C94900602
:100B6000FC010590615070400110D8F78095909578
:100B70008E0F9F1F0895FC0161507040019001107D
:100B8000D8F7809590958E0F9F1F0895DC01FC018A
:100B9000672F71917723E1F7329704C07C916D93B1
:100BA00070836291AE17BF07C8F308950F931F9328
:100BB000CF93DF938C01EB018B8181FF1BC082FF00
:100BC0000DC02E813F818C819D812817390764F4E7
:100BD000E881F9810193F983E88306C0E885F98506
:100BE000802F0995009731F48E819F8101969F8314
:100BF0008E8302C00FEF1FEFC801DF91CF911F91CD
:100C00000F910895FA01AA27283051F1203181F17E
:100C1000E8946F936E7F6E5F7F4F8F4F9F4FAF4F04
:100C2000B1E03ED0B4E03CD0670F781F891F9A1F17
:100C3000A11D680F791F8A1F911DA11D6A0F711DCB
:100C4000811D911DA11D20D009F468943F912AE0D7
:100C5000269F11243019305D3193DEF6CF010895BF
:100C6000462F4770405D4193B3E00FD0C9F7F6CFF0
:100C7000462F4F70405D4A3318F0495D31FD4052B8
:100C8000419302D0A9F7EACFB4E0A695979587954E
:100C900077956795BA95C9F700976105710508952D
:100CA0009B01AC010A2E06945795479537952795D9
:100CB000BA95C9F7620F731F841F951FA01D089571
:100CC000AA1BBB1B51E107C0AA1FBB1FA617B70772
:100CD00010F0A61BB70B881F991F5A95A9F780958E
:100CE0009095BC01CD0108952F923F924F925F9253
:100CF0006F927F928F929F92AF92BF92CF92DF922C
:100D0000EF92FF920F931F93CF93DF93CDB7DEB790
:100D1000CA1BDB0B0FB6F894DEBF0FBECDBF099424
:100D20002A88398848885F846E847D848C849B847B
:100D3000AA84B984C884DF80EE80FD800C811B8189
:100D4000AA81B981CE0FD11D0FB6F894DEBF0FBEB8
:0A0D5000CDBFED010895F894FFCF28
:100D5A007374617274004D6F64653A2073746172C2
:100D6A00740D0A006C6F77004D6F64653A206C6FE2
:100D7A00770D0A0068696768004D6F64653A2068F4
:100D8A006967680D0A00616C6C004D6F64653A20F2
:100D9A00616C6C0D0A006F6666004D6F64653A20DF
:100DAA006F66660D0A00636F756E743D00436F755A
:100DBA006E74207365740D0A007468726573683DF9
:100DCA00005468726573686F6C64207365740D0AE9
:100DDA000073746174757300636F756E743D256476
:100DEA00207468726573683D25640D0A00556E6B40
:100DFA006E6F776E20636F6D6D616E640D0A0041D0
:100E0A0044435B005D203D20000D0A00414443201D
:100E1A003D200053797374656D2072656164792E83
:080E2A000D0A00FF0AF40100AB
:04000005008001383E
:00000001FF
