:100000000C942A000C944C010C94B4010C944700FD
:100010000C9447000C9447000C9447000C94470044
:100020000C9447000C9447000C9447000C94470034
:100030000C9447000C9447000C9447000C94470024
:100040000C9447000C9447000C9447000C946E00ED
:100050000C94470011241FBECFE5D4E0DEBFCDBF16
:1000600010E0A0E6B0E0E0E2F6E002C005900D92FC
:10007000AE3FB107D9F711E0AEEFB0E001C01D927D
:10008000AE35B107E1F70E94A1020C940E030C9467
:1000900000008CE089B910BC88E18AB986E880BD8F
:1000A00008955D9BFECF8CB90895CF93DF93EC014B
:1000B0008881882331F021960E94510089918823FC
:1000C000D9F7DF91CF9108955F9BFECF8CB1089552
:1000D0003E9A379A80B7806680BF08951F920F922C
:1000E0000FB60F9211248F939F938091FE00882367
:1000F00049F0369A3699FECF84B195B190930001BC
:100100008093FF009F918F910F900FBE0F901F90D3
:10011000189583B7886083BF83B7846083BF8CE002
:100120008CBF89B7826089BF0895EF92FF920F93C9
:100130001F93CF93DF9305E111E0C0E0D0E00E9470
:100140006400F80181938F0121968A3019F0CF3134
:10015000D105A9F7FE01ED5EFE4F10827E018C2FC6
:100160009F2DDF91CF911F910F91FF90EF900895F8
:100170002F923F924F925F926F927F928F929F92B7
:10018000AF92BF92CF92DF92EF92FF920F931F93A5
:10019000CF93DF93C5E1D1E000E610E0BB24B39438
:1001A0000F2EF6E66F2EF0E07F2EF02D0F2EF4E7E7
:1001B000EF2EF0E0FF2EF02D0F2EFEE8CF2EF0E018
:1001C000DF2EF02D0F2EF6EA8F2EF0E09F2EF02D71
:1001D0000F2EF6EB4F2EF0E05F2EF02DAA24689440
:1001E000A1F80F2EFDE72F2EF0E03F2EF02D0E94FC
:1001F0009500CE01B8010E94C002282F392F211589
:10020000310531F4B092FE00C3010E945500EFCFDA
:10021000CE01B7010E94C002282F392F21153105C8
:1002200031F41092FC00C1010E945500E0CFCE01D4
:10023000B6010E94C002282F392F2115310539F44B
:10024000B092FC0086E990E00E945500D0CFCE012C
:10025000B4010E94C002282F392F2115310539F42D
:10026000A092FC008AEA90E00E945500C0CFCE0127
:10027000B2010E94C002282F392F2115310539F40F
:100280001092FE008AEB90E00E945500B0CF86EC01
:1002900090E00E945500ABCF1F920F920FB60F92C5
:1002A00011242F933F934F935F936F937F938F937B
:1002B0009F93AF93BF93CF93DF93EF93FF9380917F
:1002C000FE008823F1F1809155018A30D0F5369AED
:1002D0003699FECFE091550124B135B1F0E081E0CF
:1002E00091E0EE0FFF1FE80FF91F3183208320916B
:1002F000550130E0220F331F820F931FC6E5D1E076
:10030000FC0180819181BE014AE050E00E94C90257
:1003100088ED90E00E94550080915501805D0E941B
:1003200051008DED90E00E945500CE010E945500D5
:1003300082EE90E00E945500809155018F5F80937E
:100340005501FF91EF91DF91CF91BF91AF919F91B7
:100350008F917F916F915F914F913F912F910F906E
:100360000FBE0F901F9018951F920F920FB60F920D
:100370001124AF92BF92CF92DF92EF92FF920F9330
:100380001F932F933F934F935F936F937F938F931D
:100390009F93AF93BF93CF93DF93EF93FF9380919E
:1003A000FE00882309F4B2C08091FC00823081F500
:1003B000C1E0D1E00F2EF4E1EF2EFF24F02DEC0E82
:1003C000FD1E06E511E00F2EF5EECF2EF0E0DF2E3C
:1003D000F02D0F2EF2EEAF2EF0E0BF2EF02D899112
:1003E0009991B8014AE050E00E94C902C6010E94FA
:1003F0005500C8010E945500C5010E94550081EEBC
:1004000094E00197F1F700C00000CE15DF0539F741
:100410008091FC008823D9F5C0E0D0E001E011E034
:100420000F2EF6E5EF2EF1E0FF2EF02D0F2EF5EE5C
:10043000CF2EF0E0DF2EF02D0F2EF2EEAF2EF0E0FB
:10044000BF2EF02DFE01EE0FFF1FE00FF11F808188
:10045000918121E0843F9207ACF4B7014AE050E07B
:100460000E94C902C6010E945500C7010E945500A2
:10047000C5010E94550081EE94E00197F1F700C09C
:10048000000001C021962196CA30D105DCF280918E
:10049000FC008130D9F5C0E0D0E001E011E00F2E82
:1004A000F6E5EF2EF1E0FF2EF02D0F2EF5EECF2E1C
:1004B000F0E0DF2EF02D0F2EF2EEAF2EF0E0BF2E8B
:1004C000F02DFE01EE0FFF1FE00FF11F80819181E3
:1004D00021E0843F9207ACF0B7014AE050E00E946F
:1004E000C902C6010E945500C7010E945500C501FE
:1004F0000E94550081EE94E00197F1F700C00000E2
:1005000001C021962196CA30D105DCF2FF91EF910E
:10051000DF91CF91BF91AF919F918F917F916F911B
:100520005F914F913F912F911F910F91FF90EF900D
:10053000DF90CF90BF90AF900F900FBE0F901F90A5
:1005400018951ABA82E081BB85B7807F85BF85B7D1
:10055000836085BF85B78C6085BF8BB7806C8BBF90
:100560000E9449000E9468000E94890078948CEEE5
:1005700090E00E9455000E94B80080E090E008954D
:10058000FB01DC018D91019080190110D9F3990BC9
:100590000895FB019F01E8944230C4F04532B4F461
:1005A0004A3029F497FB1EF4909581959F4F642F54
:1005B00077270E94FA02805D8A330CF0895D81936F
:1005C000CB010097A1F716F45DE251931082C901A7
:1005D0000C94EA02DC01FC01672F71917723E1F7AB
:1005E000329704C07C916D9370836291AE17BF0700
:1005F000C8F30895AA1BBB1B51E107C0AA1FBB1F6C
:10060000A617B70710F0A61BB70B881F991F5A959E
:10061000A9F780959095BC01CD010895F894FFCF7E
:100620007374617274004D6F64653A207374617203
:10063000740D0A00756E646572353030004D6F645C
:10064000653A20756E6465723530300D0A006F763C
:100650006572353030004D6F64653A206F76657293
:100660003530300D0A00616C6C004D6F64653A20C6
:10067000616C6C0D0A006F6666004D6F64653A2010
:100680006F66660D0A00556E6B6E6F776E20636F36
:100690006D6D616E640D0A004144435B005D203D59
:1006A00020000D0A00414443203D2000537973741B
:0E06B000656D2072656164792E0D0A00FF00F1
:04000005008000FE79
:00000001FF
