:100000000C942A000C9481000C9447000C94470037
:100010000C9447000C9447000C9447000C94470044
:100020000C9447000C9447000C9447000C94470034
:100030000C9447000C9447000C9447000C94470024
:100040000C9447000C9447000C9447000C94470014
:100050000C94470011241FBECFE5D4E0DEBFCDBF16
:1000600010E0A0E6B0E0EAEAF3E002C005900D92ED
:10007000AE3DB107D9F711E0AEEDB0E001C01D9281
:10008000AA32B107E1F70E9477010C94D3010C94D6
:1000900000008CE089B910BC88E18AB986E880BD8F
:1000A00008955D9BFECF8CB90895CF93DF93EC014B
:1000B0008881882331F021960E94510089918823FC
:1000C000D9F7DF91CF9108955F9BFECF8CB1089552
:1000D0003E9A379A089583B7886083BF83B7846058
:1000E00083BF8CE08CBF89B7826089BF08958BB7CE
:1000F00080648BBF85B7826085BF85B78E7F85BFE3
:1001000008951F920F920FB60F9211248F9381E0E2
:100110008093DF008F910F900FBE0F901F90189566
:10012000CF93DF938091DF00882399F18091DE00E7
:10013000882379F11092DF00369A3699FECF84B188
:1001400095B19093E1008093E0002091DE00213092
:1001500029F421E0843F920754F01BC0223029F497
:1001600021E0843F92071CF414C0233091F4C2E2D2
:10017000D1E0BE014AE050E00E948E0180E690E0AE
:100180000E945500CE010E94550087E690E00E9433
:100190005500DF91CF910895EF92FF920F931F9337
:1001A000CF93DF9302EE10E0C0E0D0E00E94640045
:1001B000F80181938F0121968A3019F0CF31D10552
:1001C000A9F7FE01E052FF4F10827E018C2F9F2D78
:1001D000DF91CF911F910F91FF90EF9008952F9293
:1001E0003F924F925F926F927F928F929F92AF92C7
:1001F000BF92CF92DF92EF92FF920F931F93CF9314
:10020000DF93C2EED0E00AE610E00F2EF4E8EF2E06
:10021000F0E0FF2EF02D0F2EFCE9CF2EF0E0DF2EC8
:10022000F02D0F2EFCEBAF2EF0E0BF2EF02D0F2E99
:10023000FBEC6F2EF0E07F2EF02D4424689441F803
:100240000F2EFCE82F2EF0E03F2EF02D5524539476
:100250000F2EF3E78F2EF0E09F2EF02D0E949000DE
:100260005F9BFCCF0E94CC00CE01B8010E948501AB
:10027000282F392F2115310531F45092DE00C401A9
:100280000E945500EBCFCE01B7010E948501282FB7
:10029000392F2115310531F44092DE00C1010E9451
:1002A0005500DCCFCE01B6010E948501282F392FE1
:1002B0002115310541F483E08093DE0080EB90E06E
:1002C0000E945500CBCFCE01B5010E948501282F99
:1002D000392F2115310539F41092DE0080EC90E0C1
:1002E0000E945500BBCFC3010E945500B7CF8A982A
:1002F000929A0E9449000E9468000E9477007894B8
:100300000E94EF0080E090E00895FB01DC018D91F8
:10031000019080190110D9F3990B0895FB019F01F9
:10032000E8944230C4F04532B4F44A3029F497FBE3
:100330001EF4909581959F4F642F77270E94BF01EF
:10034000805D8A330CF0895D8193CB010097A1F722
:1003500016F45DE251931082C9010C94AF01DC01E7
:10036000FC01672F71917723E1F7329704C07C91EC
:100370006D9370836291AE17BF07C8F30895AA1BEF
:10038000BB1B51E107C0AA1FBB1FA617B70710F080
:10039000A61BB70B881F991F5A95A9F780959095B2
:0A03A000BC01CD010895F894FFCFD1
:1003AA00414443203D20000D0A00756E6465723594
:1003BA003030004D6F64653A20756E646572353071
:1003CA00300D0A006F766572353030004D6F646506
:1003DA003A206F7665723530300D0A00D0B2D1817D
:1003EA00D0B520D0BFD196D0B4D180D18FD0B400AF
:1003FA004D6F64653A20616C6C0D0A006F66660089
:10040A004D6F6465206F66660D0A00556E6B6E6FE0
:0E041A00776E20636F6D6D616E640D0A0000D9
:00000001FF
